:100000000C94BE0F0C94E60F0C94E60F0C94E60FC4
:100010000C94E60F0C94E60F0C94E60F0C94E60F8C
:100020000C94E60F0C94E60F0C949F1C0C940E1D80
:100030000C94E60F0C94E60F0C94E60F0C94E60F6C
:100040000C94E60F0C94EA1F0C94E60F0C94E60F48
:100050000C94E60F0C94E60F0C94E60F0C94401FE2
:100060000C94E60F0C94E60F0C94E60F0C94E60F3C
:100070000C94E60F0C94E60F0C94E60F0C94E60F2C
:100080000C948A1F0C94E60F0C94E60F0C94E60F68
:100090000C94E60F0C94E60F0C94E60F0C94E60F0C
:1000A0000C94E60F0C94E60F0C94E60F80400000D1
:1000B000000000000000000000000000F808080830
:1000C0000818F000000000C800000020E0800000D8
:1000D000000080C0600000F8081818181000000028
:1000E000E010080000000000000000000000000018
:1000F0000000F81818181818000080700808080880
:1001000070800000F818189898E00000F0180808AF
:1001100008080818300000F81818181818181800DF
:1001200000000000000000000000000000000000CF
:10013000000000000000000000000000FF060404B2
:10014000040201000000FFFF00000000C0633E1831
:100150006CC70100000000FF060606040000000056
:10016000FF00000000000000000000000000000090
:100170000000FF181818181800003FC00000000009
:10018000C03F0000FF0C0C3333C300007FC00808E1
:10019000080818B0E00000FF080C0C0C0C0C08005C
:1001A000000000000000000000000000000000004F
:1001B000000000000000000000000000030000003C
:1001C0000000000000000103000000030100000027
:1001D000000003020000000302030303020000000A
:1001E000070F0E0C0C0C04040000020202020000B7
:1001F00000000300000000000000000102020202F3
:1002000001000000030000000003000000010302E1
:1002100002020201000000030202030303030300C1
:1002200000000000000000000000000000000000CE
:1002300000000000000000000000000000000000BE
:1002400000000000000000000000000000000000AE
:10025000000000000000000000000000000000009E
:10026000000000000000000000000000000000008E
:10027000000000000000000000000000000000007E
:10028000000000000000000000000000000000006E
:10029000000000000000000000000000000000005E
:1002A000000000000000000000000000000000004E
:1002B000000000000000000000000000000000003E
:1002C000000000000000000000000000000000002E
:1002D000000000000000000000000000000000001E
:1002E000000000000000000000000000000000000E
:1002F00000000000000000000000000000000000FE
:1003000000000000000000000000000000000000ED
:1003100000000000000000000000000000000000DD
:1003200000000000000000000000000000000000CD
:1003300000000000000000000000000000000000BD
:1003400000000000000000000000000000000000AD
:10035000000000000000000000000000000000009D
:10036000000000000000000000000000000000008D
:10037000000000000000000000000000000000007D
:10038000000000000000000000000000000000006D
:10039000000000000000000000000000000000005D
:1003A000000000000000000000000000000000004D
:1003B00038684848D880001088C86830000010109D
:1003C000F8F8000000000000000000080808F80825
:1003D000080000F0F030101000001010F4000000D1
:1003E00000FC201010F00000E050505060000000B1
:1003F000000000000000F8F80000000000D050509D
:10040000F0E00000FC201010F0001070C000E030A0
:100410000000F0F030101000001010F40000000098
:10042000F0201010F0000010FC101000000000017F
:10043000030202020301000303020202000002029F
:1004400003030200000000000000000000000300A1
:10045000000000030300000000000202030202008B
:100460000003010202030000010302020100080868
:100470000808080808000303020202000003020241
:100480000103020003010202030000080F0701003C
:10049000000003030000000000020203020200004B
:1004A000030000000300000003020202000080407D
:1004B00000FC0000000000A09090E00000FC201074
:1004C00010E0000000001C001C0000F00C04444C74
:1004D000D800E05050506000F01010E00000E050F4
:1004E00050506000605090A000F400605090A00058
:1004F000404040000C84443800000804FC001C000C
:100500001C000000000000000C30C0300C00E010A7
:100510001010E000F00000F00000000000A090903B
:10052000E00000F0101000E05050506000000000AB
:100530000003020202000003020283000003020221
:10054000020100000000000080000000030202031E
:100550000100010202020100038000030000018289
:1005600002020100030202010003000302820100F3
:1005700000000002030282828080800003000000ED
:100580000000020000000000000003000000010263
:100590000202010003020203000000000003020245
:1005A000030000030000000102020201000000003D
:1005B000007452527C00000000027F42003C4A4A14
:1005C0004A2C006C4A5234027F42000000006C4A00
:1005D0005234007E40407E00007F4442423C00FE98
:1005E000003C4A4A4A2C003C46424224027F4200D8
:1005F00040000000000000007F0000003C4242423A
:100600003C007E02027C02027E00003C4242423CF0
:10061000007E0202007E0202003C4242423C023C5A
:10062000601E1E603C020000000000000000000090
:100630000000000000000000000000000040F0404A
:1006400000C0404000804040800000C0404080002A
:10065000008040408040F05000804040408001C118
:10066000404000C04040804040C00000804040808A
:100670000040F04000D000804040408000C040403A
:100680008000000000000000001010F0101000803A
:100690004040408000C04040800000D0008040408A
:1006A00080C000F04040800040F0400000000000AA
:1006B00001010101010101010101000000000F0819
:1006C000000F0000000E0A0A0F00000F00000F00CC
:1006D000000D090A06000F00000708080807000FB0
:1006E0000000000F00000F00000F00000E0A0A0FAC
:1006F00000000F08000F000708080807000F00009F
:100700000F000008000000000000000F00000007BC
:1007100008080807000F00000F00000F0007282836
:10072000281F000F00000F00000F0800000000004D
:100730002020202020202020202000000008708081
:10074000E01800F0080808F000F80000F80000F8D1
:10075000080800000000F0080808F000F80808F099
:100760000000FE00087080E0180000000000F01893
:1007700008089000FE0808F00000D04848F000008B
:10078000F80808F00000F01808089000F028282861
:10079000B000000008FE0800F0080808F0000000A3
:1007A0000000000000000000000000000000000049
:1007B000000000000000000000000000000004072E
:1007C0000000000001010100000101010100000121
:1007D00000000000000000010101C0404140800114
:1007E000C000010100C407C0C0000000C00000013B
:1007F00001010000010000010000010101010000F1
:1008000001000001000000010101000000010101E0
:1008100000000000000101000001010100000000D3
:1008200000000000000000000000000000000000C8
:10083000001E25252516003625291A001E232121F4
:1008400012003A29293E0000FF2121211E001E2509
:10085000252516002000000000003F04041C330082
:100860001F302020301F003F00030C303F000020CD
:100870000000000000000000000000000000000078
:100880000000000000000000000000000000000068
:100890000000000000000000000000000000000058
:1008A0000000000000000000000000000000000048
:1008B0008040000000000000000000000000000078
:1008C0000000000000000000000000000000000028
:1008D0000000000000000000000000000000000018
:1008E0000000000000000000000000000000000008
:1008F00000000000000000000000000000000000F8
:1009000000000000000000000000000000000000E7
:1009100000000000000000000000000000000000D7
:1009200000000000000000000000000000000000C7
:1009300000000000000000000000000000000000B7
:10094000000000000000000000000000FC24240063
:100950003CC020C03C00FC84780000000000000087
:100960000000000000000000000000000000000087
:10097000000000000000000000000000000000C0B7
:10098000F0F8F8FCFC7E9EE69E7EFCFCF8F8F0C0D9
:100990000000008080800080000080008080800057
:1009A0008080800000808080000000000000000047
:1009B0000000000000000000000000000000000037
:1009C0000000000000000000000000000070F8DCE3
:1009D000EEF602F6EEDCF870000000000000000009
:1009E0000000000000000000000000000000000007
:1009F00000000000000000000000000000001F7F59
:100A0000FFFF7F9FE3ECEFEFEFECE39F7FFFFF7FC4
:100A10001F00003F2424003D031C3300003F000062
:100A20003F242400003F040A3300000000000000BF
:100A30000000000000F8000000F8484800F84848AE
:100A40000008F80800F0B81CAEB6BEBCB8F0000153
:100A500003030203030100F0B8BCBEB6AE1CB8F03D
:100A600000F848A83000E800F048D000F840F8004E
:100A700008F808000000000000000000000000006E
:100A800001030207070F0F0F0F0F070702030100F3
:100A90000000000000000000000000000000000056
:100AA0000000000000000000000000000000000046
:100AB0000000000000030202000302020003000025
:100AC00000000300000103070E0D0F070381C0E0C3
:100AD000F0F010F0F0E0C08103070F0D0E070301E6
:100AE00000030000030003000102010003000300F3
:100AF0000003000000000000000000000000008073
:100B0000E0F0F0F818FCFCFCFCFCF8F8F0F0E080F9
:100B1000000000007848888030C0C030C08070007D
:100B2000F20010F81000E010100000FC1010F000AF
:100B300000000000000000000000000000000000B5
:100B40000000000000000000000000C040C3078E4D
:100B50005D9B10DB5D4E07C300C00000000000007D
:100B60000000000000000000000000000000000085
:100B700000000000000000000000000000003EFF38
:100B8000FFFFFFFF00F7FBFBFBFBFBF70FFFFFFF88
:100B90003E000000040404030007070007070000EC
:100BA0000700000704040704040000070000070012
:100BB0000000000000000000000000000000000035
:100BC00000000000000000000000000F090E000FF0
:100BD000020F000F0808000F010E000000000000C7
:100BE0000000000000000000000000000000000005
:100BF00000000000000000000000000000000000F5
:100C00000307070F0C1E1D1D1D1D0D0E07070300FA
:100C100000000000FE22220200FF0000F80404F899
:100C20000000F80404F80000FC04040000000000C8
:100C300000000000000000000000000000000000B4
:100C400000000000000000000000000000000000A4
:100C50000000000000000000000000000000000094
:100C60000000000000000000000000000000000084
:100C70000000000000000000000000000000000074
:100C80000000000000000000000000000000000064
:100C9000000000000100000000010100010101004E
:100CA0000000010101000000010000000000000040
:100CB000000008080080C0FEDCC880000080C0FE84
:100CC000CECC88000080C0FEC6C4800007071C226E
:100CD000555155221C80400000000000000000001B
:100CE0000000000000000000000000000000000004
:100CF0000000000000000000E0F80848D8C000A094
:100D0000A0A0E000E040E0C060C080E0A0A0E00063
:100D1000000000000000E0F80808F8E020E0008093
:100D2000E02080E0A0A0E00000E0C0202000000063
:100D3000F8F80000000000000000000000000000C3
:100D400000000000000000000000000000000000A3
:100D50000000000000000000000000000000000093
:100D60000000000000000000000000000000000083
:100D7000000000000000000018191A1A1B19181BA7
:100D80001A191B1A1B181B1B181B181B1A1A1A18C6
:100D9000181818181818181B1A1A1B1818181B1BC3
:100DA0001818181B1A1A1A18181B1B1818180000E4
:100DB000020200000000000000000000000000002F
:100DC0000000000000000000000000000000000023
:100DD0000000000000000000000000000000000013
:100DE0000000000000000000000000000000000003
:100DF000000000000000000000000000000000F003
:100E000010F06000C0C0400000C040C00000C04002
:100E1000400000C0404000000000000000007000E2
:100E20000000F090F00000007000000000000000E2
:100E300000000000000000000000000000000000B2
:100E400000000000000000000000000000000000A2
:100E50000000000000000000000000000000000092
:100E60000000000000000000000000000000000082
:100E7000000000000000000000000000000000076B
:100E8000010100000700000001070505010005053C
:100E9000070000050507000000000000000000003A
:100EA000000007040703000000000000000000002D
:100EB0000000000000000000000000000000000032
:100EC0000000000000000000000000000000000022
:100ED0000000000000000000000000000000000012
:100EE0000000000000000000000000000000000002
:100EF0000000000000000000000000000000001ED4
:100F00003F22001C3E223E1C0000000000001E3F4D
:100F10002200003E060200028EF0380600000000AB
:100F200000000000000000000000000000000000C1
:100F300000000000000000000000000000000000B1
:100F400000000000000000000000000000000000A1
:100F50000000000000000000000000000000000091
:100F60000000000000000000000000000000000081
:100F7000000000000000000000000000000080D021
:100F800050F00040F010F0F080D050F0000010F46D
:100F9000000000F010F00000000000000000000061
:100FA0000000000000000000000000000000000041
:100FB0000000000000000000000000000000000031
:100FC0000000000000000000000000000000000021
:100FD0000000000000000000000000000000000011
:100FE0000000000000000000000000000000000001
:100FF00000000000000000000000000000000001F0
:1010000001010100050507010001010101010101C4
:1010100001010001000100000000000000000000CC
:1010200000000000000000000000000000000000C0
:1010300000000000000000000000000000000000B0
:1010400000000000000000000000000000000000A0
:101050000000000000000000000000000000000090
:101060000000000000000000000000000000000080
:101070000000000000000000000000000000000070
:101080000000000000000000000000000000000060
:101090000000000000000000000000000000000050
:1010A0000000000000000000000000000000000040
:1010B0000000000000000000000000000000000030
:1010C0000000000000000000000000000000000020
:1010D0000000000000000000000000003E5B4F5BCD
:1010E0003E3E6B4F6B3E1C3E7C3E1C183C7E3C18CB
:1010F0001C577D571C1C5E7F5E1C00183C1800FFAF
:10110000E7C3E7FF0018241800FFE7DBE7FF3048DC
:101110003A060E2629792926407F050507407F05D6
:10112000253F5A3CE73C5A7F3E1C1C08081C1C3ECD
:101130007F14227F22145F5F005F5F06097F017FBB
:10114000006689956A606060606094A2FFA294085E
:10115000047E040810207E201008082A1C08081CA1
:101160002A08081E101010100C1E0C1E0C30383EE1
:101170003830060E3E0E06000000000000005F0042
:10118000000007000700147F147F14242A7F2A120E
:1011900023130864623649562050000807030000F4
:1011A0001C2241000041221C002A1C7F1C2A080826
:1011B0003E08080080703000080808080800006039
:1011C000600020100804023E5149453E00427F4025
:1011D0000072494949462141494D331814127F1084
:1011E00027454545393C4A494931412111090736CE
:1011F00049494936464949291E000014000000406B
:101200003400000008142241141414141400412264
:10121000140802015909063E415D594E7C12111213
:101220007C7F494949363E414141227F4141413E0F
:101230007F494949417F090909013E414151737F75
:101240000808087F00417F41002040413F017F089E
:101250001422417F404040407F021C027F7F0408EF
:10126000107F3E4141413E7F090909063E4151211F
:101270005E7F09192946264949493203017F010346
:101280003F4040403F1F2040201F3F4038403F63C9
:101290001408146303047804036159494D43007F23
:1012A0004141410204081020004141417F040201F4
:1012B0000204404040404000030708002054547896
:1012C000407F284444383844444428384444287FE4
:1012D000385454541800087E090218A4A49C787F3E
:1012E0000804047800447D40002040403D007F1009
:1012F00028440000417F40007C047804787C080486
:1013000004783844444438FC182424181824241839
:10131000FC7C08040408485454542404043F442426
:101320003C4040207C1C2040201C3C4030403C4441
:10133000281028444C9090907C4464544C440008FD
:10134000364100000077000000413608000201022B
:1013500004023C2623263C1EA1A161123A404020F3
:101360007A3854545559215555794121545478416E
:10137000215554784020545579400C1E5272123930
:1013800055555559395454545939555454580000E9
:10139000457C410002457D420001457C40F0292406
:1013A00029F0F0282528F07C545545002054547C21
:1013B000547C0A097F493249494932324848483207
:1013C000324A4848303A4141217A3A424020780036
:1013D0009DA0A07D39444444393D4040403D3C24DB
:1013E000FF2424487E4943662B2FFC2F2BFF09291D
:1013F000F620C0887E090320545479410000447DC2
:10140000413048484A32384040227A007A0A0A720B
:101410007D0D19317D2629292F28262929292630B5
:10142000484D4020380808080808080808382F10D8
:10143000C8ACBA2F102834FA00007B000008142A28
:10144000142222142A14089500220095AA0055009F
:10145000AAAA55AA55AA000000FF00101010FF000C
:10146000141414FF001010FF00FF1010F010F014FF
:101470001414FC001414F700FF0000FF00FF141404
:10148000F404FC141417101F10101F101F14141450
:101490001F00101010F0000000001F101010101F8F
:1014A00010101010F010000000FF1010101010109D
:1014B000101010FF10000000FF140000FF00FF00DC
:1014C000001F10170000FC04F41414171017141454
:1014D000F404F40000FF00F714141414141414F7A7
:1014E00000F7141414171410101F101F141414F400
:1014F000141010F010F000001F101F0000001F1447
:10150000000000FC140000F010F01010FF10FF1499
:101510001414FF141010101F00000000F010FFFF43
:10152000FFFFFFF0F0F0F0F0FFFFFF000000000011
:10153000FFFF0F0F0F0F0F38444438447C2A2A3E18
:10154000147E02020606027E027E02635549416352
:101550003844443C04407E201E2006027E0202994C
:10156000A5E7A5991C2A492A1C4C7201724C304AE5
:101570004D4D303048784830BC625A463D3E49496E
:1015800049007E0101017E2A2A2A2A2A44445F4416
:101590004440514A444040444A51400000FF010346
:1015A000E080FF000008086B6B0836123624360610
:1015B0000F090F060000181800000010100030403E
:1015C000FF0101001F01011E00191D1712003C3C04
:1015D0003C3C000000000000000000240027002A1E
:1015E000002D00300000000000250028002B002EF8
:1015F000003100040802011040804010204080406B
:101600008008020401804020100201108010204058
:10161000402004040404040304050202020204033B
:10162000020202020606060606060404020202047C
:101630000406011501260137014A015D0172018886
:10164000019F01B801D201EE010B022A024B026E8A
:10165000029302BA02E40210033F037003A403DC06
:1016600003170455049704DD0427057505C80520F4
:10167000067D06E0064907B8072D08A9082D09B917
:10168000094D0AEA0A900B400CFA0CC00D910E6F3E
:101690000F5A1053115B1272139A14D4152017802D
:1016A00018F519801B231DDE1EB420A622B524E4E4
:1016B000263429A72B402E0031EA330037453ABCA7
:1016C0003D68414C456B49C84D68524F57805C009E
:1016D0006210111213151617181A1C1D1F2123252D
:1016E00027292C2E3134373A3E4145494E52575C1A
:1016F00062686E757B838B939CA5AFB9C4D0DCE91F
:10170000F7F0F89C8E8783878E9CF8F00000FEFF30
:101710000303030303070EFCF80000FEFF030303AB
:101720000303070EFCF80000FFFF000000000000AC
:1017300000FFFF0000FEFF8383838383C7EE7C38B6
:101740000000F8FC0E07030303070EFCF800003F3F
:101750007FE0C08080C0E07F3FFFFF010101010109
:101760000101FFFF0000FFFF0C0C0C0C1C3E77E397
:10177000C100007FFFC0C0C0C0C0E0703F1F0000BC
:101780001F3F70E0C0C0C0E0703F1F00007FFFC17E
:10179000C1C1C1C1E3773E1C00001F3F70E0C0C063
:1017A000C0E0703F1F000000000001FFFF010000CB
:1017B00000D5F08D14A1C881CFD9F1AF2000029AD5
:1017C000903E00A6904000A6904200A6904000A641
:1017D000904300A6904200A6904000A6903E00A62E
:1017E000904500A6904300A6904200A6904000A617
:1017F0009132904200A69134903E00A691369045D9
:1018000000A6913400A69047913700A6913600A615
:101810009049913400379047003790490037913212
:10182000904A00A6913990490053904A005391374D
:10183000904900A69136904700539045005391344B
:10184000007D8000299049913600A6904A9132008F
:10185000A6904C913900A6904900A6912D904E007B
:10186000A6904A00A69139904900A69047008A8127
:10187000001B9139904C00A6904900A6912D904AEA
:1018800000A6904700A69139904500A69044008A92
:1018900081001B9139904C00A6904900A6912D9093
:1018A0004E00A6904A00A69139904900A6904700A4
:1018B0008A81001B9139904C00A6904900A6912D79
:1018C000904A00A6904700A69139904500A6904402
:1018D000008A81001B9139904900A6904700A6918B
:1018E0003B904A00A6904900A6913D904700A690E3
:1018F0004500A6913E904E00A6913D00A6904491D1
:101900004000A6913E00A69045913D00A6913B0067
:10191000A6913D001B80001B904700379045003783
:10192000913E90440037904500379047001B80005F
:101930001B90479140014D913400A6904500A6911F
:1019400039904500A6913400A6913600A691380042
:10195000A691398000A6913B00A6913D00A6913B3F
:1019600000A6904C913E00A6913D00A69051913B5F
:1019700000A6913900A6914000A6904700A6913498
:10198000904900A6904B00A6904C8100A6904E0076
:10199000A6904F00A6904E00A6913B905100A690B5
:1019A0004F00A69140904E00A6904C00A690530088
:1019B000A6913600A69047913800A6913A00A691CC
:1019C0003B8000A6913D00A6913E00A6913D00A659
:1019D0009042914000A6913E00A69047913D00A6FE
:1019E000913B00A6914200A6904600A691369047F2
:1019F00000A6904900A69140904A00A6904C00A6EF
:101A0000913E904E00A6904C00A69147904F00A6A4
:101A10009146904E00A69147904C00A6904A00A691
:101A2000913D904C00A6904A00A69146904E00A68B
:101A30009144904C00A69146904A00A6904900A679
:101A40009147904A00A69145904900A69143904C39
:101A500000A69142904A00A69140904900A6913E6E
:101A6000904700A69140904900A6913E00A690465E
:101A700091420053904400539140904600A6913EFD
:101A8000904700A6913D00A6913E00A69049914046
:101A9000008A80001B904991420053904A00539065
:101AA0004900A6913600A6904700A6913B00A6905B
:101AB0004200A69136904400A6904600A69132902E
:101AC0004700A6904900A6912F904A00A690490091
:101AD000A6904C00A6904A00A690498100A6904787
:101AE00000A6904F00A6912F00A6913100A6913339
:101AF00000A6913400A6913600A6913700A6913633
:101B000000A6913900A6913700A6913600A691341F
:101B100000A69139008A80001B904000A6904200E8
:101B2000A6904400A6904500A6904700A6904900C4
:101B3000A6904700A6904A00A6904900A6904700AC
:101B4000A6904500A6904E008A81001B912D00A60C
:101B5000912F00A6913100A6913200A6913400A6E3
:101B6000913600A6913400A6913700A6913600A6C2
:101B7000913400A6913200A69138008A80001B9013
:101B80004700A6904C00A69134904A00A69136904A
:101B90004900A69138904700A69139904900A69136
:101BA00038904700A69136904A00A691349049009B
:101BB000A69132904700A69136904500A6913490A8
:101BC000440053904500539132904400A6913190C7
:101BD0004000A6912F00A69045913100A690479114
:101BE0002D00A69049913900A6904700A691369005
:101BF0004A00A6904900A69131904700A690450062
:101C0000A69132904E00A6913100A6913400A69084
:101C100044913200A69045913100A69044912F0046
:101C2000A69045913100A6904A913200A690479126
:101C300034014D912800A69045008A80001B9045F4
:101C4000912D00A6913100A6913200A690499134C1
:101C500000A6904A913600A6904C913700A690427B
:101C6000913900A6913700A69043913B00A6913987
:101C700000A690479137005390450053913690430A
:101C80000053904500539137904700A6913600A627
:101C9000904A91390053904900539137904700532F
:101CA000904900539136904A00A6913400A691368F
:101CB00000A69049913400A6904C913700A6904A16
:101CC000913600A69049913400A6904A913200A620
:101CD000904C913900A6904A00A6912D904900A6FB
:101CE000904700A690458100A6904300A690420030
:101CF000A6904000A6904300A6904200A690400007
:101D0000A6903E00A6904500A6904300A6904200F3
:101D1000A6904000A69132904200A69134903E00D9
:101D2000A69136904500A6913400A69047913700C1
:101D3000A6913600A690499134003790470037901D
:101D40004900379132904A00A6913990490053904A
:101D50004A00539137904900A6913690470053901E
:101D60004500539134007D800029904A913600A6A9
:101D70009132008A80001B904A913900A69136006A
:101D8000A6903E913B00A6913700A6904A9136005E
:101D9000A69134008A80001B904A913900A69136A2
:101DA00000A6903E913700A6913400A6904A913249
:101DB00000A69131008A80001B904A913900A691BB
:101DC0003600A6903E913B00A6913700A6904A911E
:101DD0003600A69134008A80001B904A913900A6F3
:101DE000913600A6903E913700A6913400A6904A05
:101DF000913200A6904C913100A6904E913200A6EF
:101E0000904C00A69134904F00A6904E00A69136BB
:101E1000904C00A6904A00A69137905300A69136A8
:101E200000A69049913900A6913700A6904A9136B4
:101E300000A6913400A69136001B80001B904C0038
:101E400037904A0037913790490037904A003790D1
:101E50004C002980000D904C9139014D912D00A628
:101E6000904A008A80001B904A912F00A6912D0075
:101E7000A6903E913000A6912F00A69043912D0090
:101E8000A6912B00A6913200A6903900A6903B00A7
:101E9000A6903D00A6903E00A6904000A69042006D
:101EA0008A81001B9131904000A6912F904300A69B
:101EB000912D904200A6912B904000A6912A903E31
:101EC00000A6912B904700A6912A00A6912D00A66E
:101ED000903D912B00A6903E912A00A6903D91281E
:101EE00000A6903E912A00A69043912B00A6904018
:101EF000912D01F4903E008A80001B903E912607B0
:101F0000D08081F0080B00020202000009040000EA
:101F10000102020000052400100105240101010452
:101F2000240206052406000107058103100040096C
:101F3000040100020A000000070502024000000739
:101F40000583024000000403090412010002EF02AD
:101F50000140412336800001010203014172647592
:101F6000696E6F204C4C430041726475696E6F203E
:101F70004C656F6E6172646F00008E2011241FBE6D
:101F8000CFEFDAE0DEBFCDBF11E0A0E0B1E0ECEAD8
:101F9000F5E502C005900D92A036B107D9F727E00C
:101FA000A0E6B1E001C01D92AA3AB207E1F71FE036
:101FB000CEEBDFE004C02197FE010E94AC28CD3BB0
:101FC000D107C9F70E94F1200C94D42A0C94000088
:101FD00080917E01089581E0089580E0EFEAF1E0CC
:101FE00081118FEF002481938193819381930394D6
:101FF000D1F70895CF92DF92EF92FF92CF93DF93C4
:10200000EC016A017B01E0910306F0910406099559
:102010008823F1F18091AE018230D0F181E080938C
:10202000AD018091AC018093AB0180918100887FEC
:10203000816080938100DE01AA0FBB1FA70196017A
:102040000E94372728EE33E040E050E00E944A2704
:1020500069017A019E0150E040E060E072E18AE7A8
:1020600090E00E941827215031094109510930930D
:10207000890020938800C092A701D092A801E09225
:10208000A901F092AA0180916F00826080936F0095
:10209000DF91CF91FF90EF90DF90CF900895EFEA1E
:1020A000F1E0A0E0B8E000800EBC8111012C119796
:1020B000A0FDFDCF0192B9F70DB40895FC01809108
:1020C000A601882311F13FB7F89482E08093E900DC
:1020D0002091F200822F90E01816190614F481E086
:1020E00090E0882339F0289844E64093A501409178
:1020F000F1004083222339F02091F200211103C026
:102100002BE62093E8003FBF08958FEF9FEF0895DF
:102110002FB7F89483E08093E9009091E800892F2D
:10212000807295FF04C09091F20080E4891B2FBF5C
:10213000089580919D0181110DC082E080939901E5
:1021400084E080939A0110929C0110929B0181E09F
:1021500080939D0189E991E00895CF93DF931F92C9
:10216000CDB7DEB76983DC01ED91FC910280F3818C
:10217000E02D41E050E0BE016F5F7F4F09950F9069
:10218000DF91CF91089583E08093E9008091F20080
:10219000882319F08AE38093E80008950E9488104C
:1021A00090E00895CF93DF931F92CDB7DEB7FC0187
:1021B0008485958597FD08C02FEF3FEF35872487ED
:1021C0000F90DF91CF910895CE0101960E945E108D
:1021D000019719F4898190E0F3CF8FEF9FEFF0CF53
:1021E0000F931F93CF93DF931F92CDB7DEB78C0170
:1021F000FC018485958597FF0BC0CE0101960E9456
:102200005E10019771F4898190E0F80195878487C9
:10221000F801848595850F90DF91CF911F910F91E3
:1022200008958FEF9FEFF1CFFC018485958597FD91
:102230000BC09FB7F89482E08093E9008091F20090
:102240009FBF90E0019608959FB7F89482E0809335
:10225000E9008091F2009FBF90E0089540919301C2
:1022600050919401209191013091920142175307AE
:10227000B4F49091E8009570E1F39091E80092FD3C
:1022800019C08093F100809193019091940101967F
:102290008F739927892B19F48EEF8093E800809132
:1022A00093019091940101969093940180939301EE
:1022B00081E0089580E00895DF92EF92FF920F93FE
:1022C0001F93CF93DF93D82E8A01EB017B01E40E9D
:1022D000F51ECE15DF0559F0D7FE12C0FE01849120
:1022E0000E942E1121968111F4CF0FEF1FEFC8012C
:1022F000DF91CF911F910F91FF90EF90DF900895A4
:102300008881EECF0F931F93CF93DF931F92CDB7AA
:10231000DEB782E0898342E450E064E07FE180E858
:102320000E945C110E949910DC0112960D911C9183
:102330000115110589F0D801ED91FC910280F3811E
:10234000E02DBE016F5F7F4FC801099597FD04C066
:10235000F80100851185ECCF89810F90DF91CF9135
:102360001F910F910895615030F02091F100FC0110
:1023700020830196F8CF289884E68093A5010895DC
:102380003FB7F89480918D0190918E01A0918F01BB
:10239000B091900126B5A89B05C02F3F19F001967A
:1023A000A11DB11D3FBFBA2FA92F982F8827BC01AF
:1023B000CD01620F711D811D911D42E0660F771FD7
:1023C000881F991F4A95D1F708958F929F92AF92D7
:1023D000BF92CF92DF92EF92FF926B017C010E943D
:1023E000C0114B015C01C114D104E104F104B9F046
:1023F0000E94C011681979098A099B09683E7340D7
:102400008105910580F321E0C21AD108E108F108A5
:1024100088EE880E83E0981EA11CB11CE4CFFF90CB
:10242000EF90DF90CF90BF90AF909F908F900895E6
:102430008F929F92AF92BF92CF92DF92EF92FF92D4
:102440000F931F93CF93DF936C017B018A018091DF
:102450000C01882309F45CC08091A601882309F44B
:1024600057C08091980180FF05C08091E000826094
:102470008093E000E801B12C8AEFA82E93E0892E2A
:102480002AE3922E209711F4BB20D9F10E948810E4
:1024900081110AC0AA94AA20D9F161E070E080E01D
:1024A00090E00E94E511EECF8C171D0611F00CF0A4
:1024B0008C2F9FB7F8948092E9002091E80025FDC9
:1024C00002C09FBFDFCF282F30E0C21BD30BF70124
:1024D000815020F041914093F100FACFE20EF31EBB
:1024E000BB2021F09092E800B12CEBCF8091E80066
:1024F00085FDE7CF9092E800BB24B394209709F3C1
:10250000F3CF5D9884E680939701101611063CF096
:1025100081E090E0F6019383828310E000E0C8013F
:10252000DF91CF911F910F91FF90EF90DF90CF90AF
:10253000BF90AF909F908F900895AF92BF92CF922F
:10254000DF92EF92FF920F931F93CF93DF936C0173
:102550007B018B01040F151FEB015E01AE18BF0854
:10256000C017D10759F06991D601ED91FC91019006
:10257000F081E02DC6010995892B79F7C501DF911E
:10258000CF911F910F91FF90EF90DF90CF90BF9070
:10259000AF900895CF92DF92EF92FF921F93CF9367
:1025A000DF93E82FF0E0E95CFE4F1081E62FF0E0CA
:1025B000603398F5EF52F94EE491CE2FD0E0F12C34
:1025C000E12C60E074E284EF90E0A7019E010E949C
:1025D0001827215031094109510991E02115310590
:1025E00081E0480751056CF060E970ED83E090E010
:1025F000A7019E010E941827215031094109510964
:1026000093E0113089F0133019F1DF91CF911F91D0
:10261000FF90EF90DF90CF900895EE0FFF1FEF52E5
:10262000FA4EC591D491CBCF8091AD018111EDCF00
:1026300080918100887F892B80938100309389006D
:102640002093880080916F00826080936F00DDCFBF
:1026500080919100887F892B80939100309399001D
:1026600020939800D0937201C093710181E0809310
:10267000700180917100826080937100C6CFE82F55
:10268000F0E0E95CFE4F8081813019F08330A9F0E1
:1026900008958091AD0181110FC080916F008D7FF1
:1026A00080936F0080916701E0916501F091660170
:1026B0009081809589238083089510927001809184
:1026C000AB018111F9CF80916E01E0916C01F09125
:1026D0006D01EECFCF93DF93D1E0E0917F01F091D8
:1026E0008001AF014F5F5F4F5093800140937F01A6
:1026F0002491822F807FC22FCF70803821F48C2FBD
:102700000E943F13EACF803919F5E0910306F0915A
:10271000040609958D2780936F01E0917F01F09168
:102720008001CF0101969093800180937F01649195
:102730008091AE01C81788F6C13021F48091640100
:102740008111CBCF67FDC9CF8C2F0E94CA12C5CF94
:1027500087FD3CC03296F0938001E0937F01FA013F
:102760004491A0917101B0917201322F242F0E94E7
:102770006C276C507E4F8F4F9F4F28EE33E040E028
:1027800050E00E944A2720936801309369014093EA
:102790006A0150936B018091680190916901A09149
:1027A0006A01B0916B01892B8A2B8B2B61F481E03C
:1027B00090E0A0E0B0E08093680190936901A0935D
:1027C0006A01B0936B01DF91CF910895803E49F487
:1027D00080918101909182019093800180937F018B
:1027E0007CCF803F09F079CF10928301ECCF90919C
:1027F000AE01923009F471C0292F30E0F901E95C93
:10280000FE4F40812E593E4FF9018083913031F4C3
:1028100020916201281302C0909364019F5F9093FE
:10282000AE0190E0FC01EE5EF94E24918D509A4E7F
:10283000FC01849130E0220F331FF901EB51FA4E75
:1028400065917491F901E952FA4EA591B4919C9168
:10285000982B9C93413019F04330D9F00895909112
:102860006400977F90936400109280001092810022
:102870009091810098609093810090918100916087
:102880009093810070936601609365018093670166
:10289000089590916500977F909365001092900045
:1028A0001092910090919100986090939100909176
:1028B000910091609093910070936D0160936C0111
:1028C00080936E018091AE01882321F06CE380E05B
:1028D0000E94CA1280E00C943F1308954F925F92B9
:1028E0006F927F928F929F92AF92BF92CF92DF9220
:1028F000EF92FF920F931F93CF93DF934C015901F7
:10290000FC2DC02FD0E0CE01880D991D1816190698
:102910000CF06CC020E8821691040CF067C09B019B
:102920002E0D311D121613060CF060C060347105B7
:102930000CF05CC04115510509F458C0E62FE77052
:10294000FE2EDB0177FD179633E0B595A7953A95F6
:10295000E1F73A2F77FF04C0FF2011F03FEF3A0F65
:10296000662777276819790997FC02C070E060E054
:10297000803891050CF44BC090E89819961BA32F52
:10298000032E000CBB0B1A2F10953F3F0CF010E0EC
:1029900021E08E2D877009F420E0E694E694E69419
:1029A000E20EAE0DB11D19971CF028E0E22EE31ADD
:1029B000E11A310F20E83203D0011124A80DB91D0E
:1029C000A60FB71F019F600D711D1124460F571FE1
:1029D0000F2D0F2C000C110BF33009F41CC1C8F49F
:1029E000F13009F4D0C0F23009F47CC0DF91CF910E
:1029F0001F910F91FF90EF90DF90CF90BF90AF901D
:102A00009F908F907F906F905F904F900895902F40
:102A1000B5CFFA3FB1F1232F2E0DFB3F39F7321717
:102A200029F3BD0161557E4FD12CC12CC91608F088
:102A3000A4C0FA01EC0DFD1DE491F0E04F01002E61
:102A400002C0880C991C0A94E2F737FD06C0FB010E
:102A50008081E82CE0948E218083FF2061F0373064
:102A600054F45B01F0E8AF0EB11CE92CE094F501E1
:102A700080818E218083FFEFCF1ADF0A6F5F7F4F47
:102A8000D5CF232F2E0D321709F4B0CFBD016155DC
:102A90007E4FD12CC12CC91608F069C0FA01EC0D8B
:102AA000FD1DE491F0E04F01002E02C0880C991C3E
:102AB0000A94E2F737FD04C0FB01808188298083F6
:102AC000FF2051F0373044F45B01F0E8AF0EB11C49
:102AD000F501808189298083FFEFCF1ADF0A6F5FBC
:102AE0007F4FD9CF6FEF70E00F2C02C0660F771FBA
:102AF0000A94E2F760957095772E232F2E0D3217EA
:102B000009F474CFFD01E155FE4F6F01B12CA12CEA
:102B1000A91638F5FA01EA0DFB1DE491F0E02F014A
:102B2000002E02C0440C551C0A94E2F737FD05C084
:102B3000F6018081862384298083FF2059F0373075
:102B40004CF44601F0E88F0E911CF401808187213E
:102B500085298083FFEFAF1ABF0A8FEFC81AD80A02
:102B6000D7CF3F5F4C0F5D1FA058BF4FC8CF3F5F0F
:102B70004C0F5D1FA058BF4F86CF3F5F4C0F5D1FAE
:102B8000A058BF4F4CCF6A0D7B1D232F2E0D32173F
:102B900009F42CCFFD01E155FE4F6F01B12CA12CA2
:102BA000A91688F5FB01EA0DFB1D8490912C002EDF
:102BB00002C0880C991C0A94E2F780949094FA0160
:102BC000EA0DFB1D6490712C002E02C0660C771C70
:102BD0000A94E2F737FD05C0F60180818821862935
:102BE0008083FF2049F037303CF4F601E058FF4F76
:102BF0008081892187298083FFEFAF1ABF0A8FEF79
:102C0000C81AD80ACDCF3F5F4C0F5D1F6C0F7D1FD8
:102C1000A058BF4FBCCFC92ED12CFA01E60FF71F29
:102C2000A155BE4F00E810E00C191D09CC19DD09B3
:102C3000BE01660F771F41E050E06A010F2C01C012
:102C4000CC0C0A94EAF7592F2E2D792ECF93DF93CF
:102C5000ED01EF96EF9622968590A590FF2059F012
:102C60008C9C4001AC9C500137302CF4E880B0942F
:102C7000EB20E928E99233233AF0EC90A094EA2083
:102C8000E828ED920C94451611965A9529F72A9545
:102C900051F0572D33951124E60FF11DA00FB11DF2
:102CA000C00FD11DD9CFDF91CF9111249FCECF92EC
:102CB000EF920F934115510541F1FA0104913196BC
:102CC000E4904E5F5F4F2223D1F0A1E0B0E03E2DB3
:102CD000377011F4B0E0A0E0EE2DE695E695E695AC
:102CE000EA0FFB2FF11D0E9FD0010F9FB00D112495
:102CF0002A9FF0012B9FF00D11244E0F5F1F22E041
:102D0000C22E30E020E00E946E140F91EF90CF9021
:102D100008952D9A0895BC0190E080E00C94E5118F
:102D20008FB18095807F669B88601C9B846008952E
:102D30003E9A3F9A81E080937E01089590918401AC
:102D4000982329F490918501982381E009F480E08B
:102D5000089580E00C944F1080389105B8F46034E9
:102D60007105A0F420E191E061FD94E060FD990F10
:102D700062FD9295687F269FD0011124A80FA1556E
:102D8000BE4F8C9140FF03C0892B8C930895909582
:102D90008923FBCF2F923F924F925F926F927F9247
:102DA0008F929F92AF92BF92CF92DF92EF92FF925B
:102DB0000F931F93CF93DF93EC018B017A0169018D
:102DC000C61AD70AD7FE03C0D194C194D1084701CF
:102DD0008C1A9D0A97FE03C09194819491088C14DB
:102DE0009D0454F49E2D8F2D7901292F382F9C2F6F
:102DF0008D2FE801092F182FEC16FD0654F4902FA3
:102E0000812F8901292F382F9C2F8D2FE701E92E43
:102E1000F82E17012C1A3D0A2901401A510A57FEB3
:102E200003C0519441945108310137FE03C08FEF24
:102E3000681A780A759467948FEF021713070CF4D9
:102E400081E0A82E880FBB08EC16FD06A4F041E037
:102E5000BE01C8018C149D0414F0B801CE010E947B
:102E6000AC166418750877FE04C00A0D1B1D620CB1
:102E7000731C2196E9CFDF91CF911F910F91FF90A5
:102E8000EF90DF90CF90BF90AF909F908F907F900A
:102E90006F905F904F903F902F9008958F929F92E8
:102EA000AF92BF92CF92DF92EF92FF920F931F9358
:102EB000CF93DF936D3089F0C0908801D090890165
:102EC0006A30D1F4109287011092860188E0C80E12
:102ED000D11CD0928901C092880181E090E0DF91FD
:102EE000CF911F910F91FF90EF90DF90CF90BF9007
:102EF000AF909F908F900895009186011091870167
:102F0000E5E06E9FE0011124C952DF4E4801F12C2B
:102F1000F5E0E12CFF1629F0CE010196FE01E490C8
:102F2000EC01B12CA12C4E2D4170B6016A0D7B1D18
:102F3000C4010E94AC16E694FFEFAF1ABF0A88E006
:102F4000A816B10481F7F394EFEF8E1A9E0AF6E00B
:102F5000FF12DECF0A5F1F4F109387010093860197
:102F6000BCCF48E250E060E070E080E293E00E9475
:102F7000FA0F68E270E080E090E00C94E5110895AB
:102F800090E080E008959C01AC01455A5F4FFC0140
:102F900091E0948395839683978390879187928716
:102FA00037964E175F07A9F7F901E15AFF4F2154F1
:102FB0003F4F91E090839183928393839483958391
:102FC000968397833896E217F307A1F708958F92B7
:102FD0009F92AF92BF920F931F93CF93DF93CDB782
:102FE000DEB7A1970FB6F894DEBF0FBECDBF19A212
:102FF000423008F44AE08E010F5D1F4F842E912C61
:10300000B12CA12CA50194010E944A27E62FB901F9
:10301000CA01EA3044F5E05DD801EE938D01232B1F
:10302000242B252B79F790E080E0109769F0FD01C3
:1030300001900020E9F73197AF014A1B5B0BBD01FE
:1030400082EA97E00E949D12A1960FB6F894DEBF27
:103050000FBECDBFDF91CF911F910F91BF90AF9069
:103060009F908F900895E95CD7CF7F928F929F9227
:10307000AF92BF92CF92DF92EF92FF920F931F9386
:10308000CF93DF93DC01ED91FC91208131812230DF
:103090003105C9F1A4F421153105D9F021303105EC
:1030A00071F1DF91CF911F910F91FF90EF90DF9021
:1030B000CF90BF90AF909F908F907F9008952330D6
:1030C000310529F12430310561F720E045ED5CE060
:1030D00003C020E04CEA50E070E060E090E080E067
:1030E000DF91CF911F910F91FF90EF90DF90CF90E4
:1030F000BF90AF909F908F907F900C94571620E0D8
:103100004EEA54E0E9CF20E040EB58E0E5CFEC0197
:10311000E857FE4FC080D18005E710E0109387018B
:103120000093860189E090E0909389018093880163
:1031300041E050E06EE571E082EA97E00E949D1266
:10314000109387010093860182E190E090938901BA
:10315000809388010D2C000CEE08FF084AE0C7019F
:10316000B601F7FE0DC06DE282EA97E00E944E17AD
:1031700066277727CB016C197D098E099F094AE0E4
:103180000E94E71710916101E881F981EA57FE4F2B
:103190000190F081E02D2281338189E0829FB0018E
:1031A000839F700D11240190F081E02D212F42EBBF
:1031B0005CE0B82FBE9FC001BF9F900D11240E94FC
:1031C0005716809160018F5F8A3008F0EEC08093BF
:1031D0006001F12CE12C10E000E057E0752E70E06A
:1031E00060E0D12CC12C709E5001719EB00C112456
:1031F000E881F981EA57FE4F0190F081E02DEA0D58
:10320000FB1DEC0DFD1D8481EFEFCE1ADE0A9B0144
:10321000275F3F4F4901882321F0A701C7010E9482
:10322000CA16B40137E0C316D10411F70F5F1F4F60
:1032300049E0E40EF11C0D30110589F6F12CE12C6A
:1032400010E000E049E0942E8E2C7F2C58015FEFB7
:10325000A51AB50A89E0E80EF11CD12CC12C33E087
:10326000000F111F3A95E1F7E881F981EA57FE4F07
:103270000190F081E02DE00FF11FEC0DFD1DE15AF2
:10328000FF4F8081882359F09C9CB0019D9C700D5C
:1032900011249B01A701882D972D0E94CA169FEF2C
:1032A000C91AD90AA8E0CA16D104F1F685010C3072
:1032B000110551F688819981ECECFCE00491EDEC6C
:1032C000FCE0E490FC01E457FE4F4081518129E08D
:1032D000249FB001259F700D11246F5F7F4F86578B
:1032E0009E4FFC0140815181249FC001259F900D7C
:1032F00011242AEFC22E30E020E04EEC5CE0019673
:103300000E946E148EE690E0909387018093860170
:10331000109289011092880188819981FC01EE56F2
:10332000FE4FC080D180E280F3802FB7F8944091A7
:10333000AF055091B0056091B1057091B2052FBFF6
:1033400082579E4FFC0180819181A281B3818A01C5
:103350009B01081B190B2A0B3B0BC901B8010E94EA
:10336000B1272FE632E143E85AE30E9417280E9472
:103370007B27072E000C880B990BA7019601261BB3
:10338000370B480B590BCA01B9014AE0DF91CF91C5
:103390001F910F91FF90EF90DF90CF90BF90AF9073
:1033A0009F908F907F900C94E717109260011F5FA1
:1033B000133018F4109361010CCF1092610109CF02
:1033C0000C9402270F931F93CF93DF93FC01268168
:1033D00037812617370780F48B01EC01660F771FC2
:1033E000660F771F828193810E94D729009751F041
:1033F0009B838A831F830E8381E0DF91CF911F918E
:103400000F91089580E0F9CF0F931F93CF93DF932F
:10341000EC018B016C817D816F5F7F4F8E819F817D
:103420008617970750F08A819B81009761F480E0AE
:10343000DF91CF911F910F910895CE010E94E21963
:103440008111F1CFF4CF2C813D81A9014F5F5F4FF6
:103450005D834C83220F331F220F331F820F931F74
:10346000F8014081518162817381FC014083518365
:103470006283738381E0DCCF2F923F924F925F9201
:103480006F927F928F929F92AF92BF92CF92DF9274
:10349000EF92FF920F931F93CF93DF93CDB7DEB7D9
:1034A000C258D1090FB6F894DEBF0FBECDBF7C0164
:1034B0006B015A018E010F5F1F4F84E5D8011D92E9
:1034C0008A95E9F7A1961FAE1EAEA197A3961FAEEF
:1034D0001EAEA397A5961FAE1EAEA59783E391E0FF
:1034E0006F969FAF8EAF6F9788E0E7E1F1E0DE0166
:1034F000AB59BF4F01900D928A95E1F788E0EFE15B
:10350000F1E0DE01A359BF4F01900D928A95E1F7DA
:10351000EF967FAF6EAFEF97C158DF4F5983488367
:10352000CF57D040BE0163587F4FCE01835A9F4F83
:103530000E94041A8CE08A9DF0018B9DF00D1124ED
:10354000E00FF11FEC0DFD1D81E080838CE0382E33
:103550009EE6892E912CA12CB12C27E0222EA1963B
:103560008EAD9FADA197009709F415C1A396EEAD5E
:10357000FFADA397309709F40CC1AF014150510939
:10358000A3965FAF4EAFA397E150F04CEE0FFF1F35
:10359000EE0FFF1FE80FF91F80819181A281B38197
:1035A000ED968CAF9DAFAEAFBFAFED9788E0E7E291
:1035B000F1E0DE01AB5ABF4F01900D928A95E1F721
:1035C000EB964EAC5FACEB97ED966EAC7FACED97A7
:1035D000FE01EB59FF4FCF57DF4FF983E883C15806
:1035E000D040389630E020E0D12CC12CCF57DF4FAF
:1035F000A881B981C158D0406D917D91CF57DF4FDF
:10360000B983A883C158D040640D751D6C30710515
:1036100020F540815181460D571D47305105E8F492
:10362000349EC001359E900D1124800F911F860F8E
:10363000971FDC018C91811110C0C601880F991F62
:1036400045E550E04C0F5D1F840F951FDC012D9365
:103650003C93A6014F5F5F4F6A012F5F3F4F329649
:103660002430310519F6C114D10409F478CFBE0114
:1036700067587F4FCE01835A9F4F0E94041A0E94C1
:10368000AA26A50194010E9418279601DD0C440B7F
:10369000550B0E941827660F771F85E590E08C0F69
:1036A0009D1F680F791FDB016D917C91EB964EADEC
:1036B0005FADEB97660F771FE5E6F0E0EC0FFD1FBF
:1036C000E60FF71F208131816A01C20ED31EED96ED
:1036D0008EAD9FADED97EDE6F0E0EC0FFD1F6E0FA8
:1036E0007F1FDB016D917C91DC01A60FB71F611577
:1036F000710509F044C02F3F320739F04F5F5F4F2B
:103700002130310511F04FEF5FEF249EC001259E5F
:10371000900D11248E0D9F1D8A0F9B1FFC0114829A
:10372000232B81F48FEF9FEF960143E0220F331F8D
:103730004A95E1F72E0D3F1D820F931F815A9F4F2F
:10374000FC0110823A9EC0013B9E900D1124800F17
:10375000911F8C0D9D1D21E0FC012083E796DFAEBB
:10376000CEAEE797E996BFAFAEAFE997BE016B5813
:103770007F4FCE01835A9F4F0E94041AF0CE232B15
:1037800009F76F3F760781F26130710559F60196AE
:10379000CBCF0E944E29CE57DF4F0FB6F894DEBF35
:1037A0000FBECDBFDF91CF911F910F91FF90EF9092
:1037B000DF90CF90BF90AF909F908F907F906F9051
:1037C0005F904F903F902F9008954F925F926F922D
:1037D0007F928F929F92AF92BF92CF92DF92EF92A1
:1037E000FF92CF93DF9300D000D0CDB7DEB72FB7D5
:1037F000F8948091AF059091B005A091B105B0917A
:10380000B2052FBF8093940790939507A0939607D6
:10381000B09397078EE096E00E94C3178DEC96E078
:103820000E94C3170E94AA262B013C010E94AA26CF
:1038300024E6C22ED12CE12CF12CA70196010E9486
:10384000182737E0832E912CA12CB12CA5019401CF
:103850000E94182769837A838B839C83C301B201FA
:10386000A70196010E9418274CE0442E512C612C90
:10387000712CA30192010E94182749815A818EE080
:1038800096E00E943C1A0E94AA2669837A838B8361
:103890009C830E94AA26A70196010E941827A501D1
:1038A00094010E9418274B0169817A818B819C8148
:1038B000A70196010E941827A30192010E941827D0
:1038C000A4018DEC96E00E943C1A81E080933C06B6
:1038D00080933D0680933E0680933F06809340068A
:1038E0008093410680934206EFE2F7E08FE897E08D
:1038F00021E0208338968E179F07D9F78EE096E057
:1039000090938D0780938C071092910710929007E7
:1039100010929307109292070F900F900F900F90B4
:10392000DF91CF91FF90EF90DF90CF90BF90AF905D
:103930009F908F907F906F905F904F9008951F920F
:103940000F920FB60F9211248F939F938091E100F5
:103950009091E100937F9093E10083FF0FC010925C
:10396000E90091E09093EB001092EC0092E39093C9
:10397000ED001092A60198E09093F00082FF22C023
:1039800093E09093E9009091F200992319F09AE363
:103990009093E80090919701992341F090919701BD
:1039A000915090939701911101C05D9A9091A5015A
:1039B000992341F09091A50191509093A501911107
:1039C00001C0289A84FF18C08091E2008E7E816039
:1039D0008093E2008091E1008F7E8093E1008091EE
:1039E00098018E7E8061809398019F918F910F90B6
:1039F0000FBE0F901F90189580FFF7CF8091E200C7
:103A00008E7E80618093E2008091E1008E7E8093C3
:103A1000E100809198018E7E8160E5CF1F920F9228
:103A20000FB60F921124CF92DF92EF92FF920F9375
:103A30001F932F933F934F935F936F937F938F9336
:103A40009F93AF93BF93EF93FF93CF93DF93CDB744
:103A5000DEB76C97DEBFCDBF1092E9008091E80021
:103A600083FF25C068E0CE0145960E94B31182EF26
:103A70008093E8008D8987FF39C09091E80090FF1E
:103A8000FCCF982F907609F034C19E894F89588DCC
:103A90002F89F88C911131C0803861F580919601A1
:103AA0008093F1001092F1008EEF8093E8006C9605
:103AB0000FB6F894DEBF0FBECDBFDF91CF91FF915F
:103AC000EF91BF91AF919F918F917F916F915F9196
:103AD0004F913F912F911F910F91FF90EF90DF90A9
:103AE000CF900F900FBE0F901F9018959EEF909360
:103AF000E800C7CF1092F100D5CF913059F4811171
:103B0000D3CF4130510581F6809196018D7F80930E
:103B10009601CACF933049F48111C6CF4130510587
:103B200019F6809196018260F2CF953041F4809130
:103B3000E80080FFFCCF20682093E300B5CF9630EB
:103B400009F0A9C00B8D1C8D22E01092E9001092A3
:103B5000940110929301F2122EC0109292011092D1
:103B600091010E9482111F8299E09983FA8291E06B
:103B70009E8390EA98879AEF9987209193013091DC
:103B80009401275F3F4F3C832B838D831092E90084
:103B9000109294011092930110939201009391015D
:103BA00049E050E0BE016F5F7F4F80E00E945C11F2
:103BB0000E94821179CF10939201009391010E948B
:103BC0009910DC0112960D911C910115110509F453
:103BD00051C1D801ED91FC910480F581E02DBE0129
:103BE0006B5E7F4FC8010995009709F03EC1F8014F
:103BF00000851185EACFF3E0FF120EC08F8988237C
:103C000009F440C0823061F440E860E188E69FE159
:103C10000E945B20811148CF81E28093EB0047CF67
:103C2000813029F440E86BE08CE59FE1F1CF8330EF
:103C300099F70E949910DC011296ED90FC908E018C
:103C40000F5F1F4F6801E114F10479F0D701ED9186
:103C5000FC910680F781E02DB801C7010995080F96
:103C6000111DF701E084F184EECFD8011C92F6011A
:103C700001900020E9F73197BF016C197D0940E000
:103C8000C601C6CF66E47FE1FB01449150E080E8C5
:103C90000E945C1109CF973009F4BECF983021F40F
:103CA00081E08093F10000CF993009F0FDCE837060
:103CB00009F0B2CFEAE3F1E081E031E096E321914F
:103CC000222371F08093E9003093EB00DF0111971C
:103CD0002C912093EC009093ED008F5F873079F763
:103CE0008EE78093EA001092EA008F898093A60104
:103CF000DBCE8B8D9C8D1092E90010929401109276
:103D000093019093920180939101898D811192C0CA
:103D10008E899D89913A49F4813209F07DCF47E03F
:103D200050E065E071E080E0B3CF913209F074CFEC
:103D3000833269F48F89988DB0E0A0E0809301010F
:103D400090930201A0930301B0930401ADCE8032A1
:103D500069F48091E80082FFFCCF67E085E091E0A4
:103D60000E94B3118BEF8093E8009ECE823209F05F
:103D70009BCE8F8980930C01EEEFFFE785919491A4
:103D80008B3F9C4D51F1E0E0F8E08091050190916E
:103D90000601A0910701B0910801803B9440A10564
:103DA000B105F1F480910C0180FD1AC0EE3F8AE06C
:103DB000F80789F587E797E7918380838091600012
:103DC0008093950188E19BE00FB6F894A8958093C5
:103DD00060000FBE9093600067CEEEEFFAE0D5CFA3
:103DE000808191818737974709F05ECEA8958091B1
:103DF00060008861809360008091950180936000ED
:103E0000EE3F2AE0F20789F08091FE0A9091FF0AC6
:103E10009183808349CE808191818737980751F2C1
:103E20009093FF0A8093FE0AC5CF1092FF0A10926A
:103E3000FE0A3ACE0E949910DC0112960D911C9157
:103E40000115110509F4E8CED801ED91FC9101901E
:103E5000F081E02DBE016B5E7F4FC8010995811195
:103E600023CEF80100851185EBCF181619060CF446
:103E70001BCED2CEF1E0FF12BECE6AE47FE104CFCA
:103E80001F920F920FB60F9211242F933F938F938F
:103E90009F93AF93BF938091AF059091B005A09190
:103EA000B105B091B20530918C0123E0230F2D377D
:103EB00058F50196A11DB11D20938C018093AF058B
:103EC0009093B005A093B105B093B20580918D0198
:103ED00090918E01A0918F01B09190010196A11D4A
:103EE000B11D80938D0190938E01A0938F01B093AB
:103EF0009001BF91AF919F918F913F912F910F9022
:103F00000FBE0F901F90189526E8230F0296A11D53
:103F1000B11DD2CF1F920F920FB60F9211242F9383
:103F20003F934F935F936F937F938F939F93AF9341
:103F3000BF93EF93FF9380917001882389F0809164
:103F4000AB0181110DC080916F01811109C0909169
:103F50006E01E0916C01F0916D0180818927808371
:103F600080918301882329F18091680190916901F2
:103F7000A0916A01B0916B01892B8A2B8B2BC9F020
:103F80008091680190916901A0916A01B0916B01E3
:103F90000197A109B1098093680190936901A093E9
:103FA0006A01B0936B01892B8A2B8B2B11F40E9431
:103FB0006A13FF91EF91BF91AF919F918F917F9184
:103FC0006F915F914F913F912F910F900FBE0F9086
:103FD0001F9018951F920F920FB60F9211248F9376
:103FE0009F93AF93BF93EF93FF938091AD0188238D
:103FF00009F454C08091A7019091A801A091A90152
:10400000B091AA01892B8A2B8B2BA1F1909167018A
:10401000E0916501F091660180818927808380911C
:10402000A7019091A801A091A901B091AA01181629
:1040300019061A061B069CF48091A7019091A8010D
:10404000A091A901B091AA010197A109B10980939A
:10405000A7019093A801A093A901B093AA01FF9191
:10406000EF91BF91AF919F918F910F900FBE0F90E5
:104070001F9018951092AB011092AD0180916F00C6
:104080008D7F80936F0080916701E0916501F091D1
:1040900066019081809589238083E1CF80916F01B3
:1040A0008111DDCF90916701E0916501F09166018A
:1040B00080818927F1CFEF92FF920F931F93CF93C7
:1040C000DF93F82E192FE62E042F81E0860F880F3C
:1040D0000E942E1183E00E942E11CF2DD12FEC0EC5
:1040E000FD2EF11CCE15DF05B9F007FF13C0FE0150
:1040F00084910E942E11182F80E00E942E1181239E
:1041000021968111EFCFDF91CF911F910F91FF90F9
:10411000EF9008958881EDCF81E0F5CFE3EBF5E0F6
:104120001382128288EE93E0A0E0B0E0848395834E
:10413000A683B78384E491E0918380838FEF9FEF20
:1041400095878487E2EAF7E01382128286E591E0A0
:1041500091838083E6E0F6E02BE030E03187208732
:1041600086E090E0938782873093CE062093CD0639
:104170009093D0068093CF0610928F0710928E07EF
:104180001092910710929007109293071092920745
:104190001092940710929507109296071092970725
:1041A0008EE190E0A0E0B0E08093980790939907AB
:1041B000A0939A07B0939B0781E090E090939D07AE
:1041C00080939C0790939F0780939E071092A1076E
:1041D0001092A00788EE9FE0909304068093030658
:1041E0000895789484B5826084BD84B5816084BD6F
:1041F00085B5826085BD85B5816085BD80916E0085
:10420000816080936E0010928100809181008260B5
:1042100080938100809181008160809381008091F2
:104220008000816080938000809191008260809303
:104230009100809191008160809391008091900025
:104240008160809390008091C10084608093C10060
:104250008091C10082608093C1008091C100816023
:104260008093C1008091C30081608093C3008091DE
:10427000C00082608093C0008091C2008160809302
:10428000C20080917A00846080937A0080917A00E5
:10429000826080937A0080917A00816080937A00B6
:1042A00080917A00806880937A001092A601109223
:1042B0009601109298018091D70081608093D70079
:1042C00080EA8093D80089B5806189BD89B5826014
:1042D00089BD09B400FEFDCF61E070E080E090E0B0
:1042E0000E94E5118091D8008F7C80618093D80076
:1042F0008091E000807F8093E0008091E1008E7EDD
:104300008093E1008DE08093E200559A209A81EC41
:1043100080937C0085B1806F85B984B1877E84B934
:1043200084B1876E84B95E9A5F988AB1806D8AB9CC
:10433000769A6E9881B3806F81BB899880B38D70B7
:1043400080BB80E58CBD81E08DBD85E090E00E9462
:104350008B165F9A85E090E00E948B165E985C98C1
:10436000E1EBF7E184918EBD00000DB407FEFDCFB7
:10437000319637E1EE3BF307A9F75C9A81E8809329
:104380006400809165008160809365000E94A91699
:104390000E94901687FF15C05C9885EA8EBD0000CC
:1043A0000DB407FEFDCF5C9A2E982F982D98809122
:1043B000640080628093640081E083BF889513BEAF
:1043C000FCCF0E94901682FF48C02D980E94901644
:1043D00084788438E1F40E94891688EC90E00E9489
:1043E0008B162F9882E090E00E9402278F3F29F0E1
:1043F0006FEF82E090E00E940A2784EF91E00E9434
:104400008B162F9A0E94901684788438D9F30E94D4
:10441000901684718431E1F40E94891688EC90E052
:104420000E948B162E9882E090E00E94022788233B
:1044300029F060E082E090E00E940A2784EF91E09A
:104440000E948B162E9A0E94901684718431D9F3A3
:1044500088EC90E00E948B16B4CF0E94891682E00F
:1044600090E00E94E019882309F4C3C00E949816C6
:1044700081E090E00E94E019482F4470942E81FF63
:1044800010C041112E98C1EFDFEF08E010E0B8E551
:104490008B2E0E94901686FFB1C02E9A2F9A0E94F2
:1044A000891682E390E00E948B160E94901681117B
:1044B000F8CF80E1809300010E94ED0F10928901F6
:1044C00010928801109287011092860182EA97E08B
:1044D000909376018093750185E096E09093780142
:1044E0008093770181E08093790110928B01109283
:1044F0008A018AE891E090930B0680930A0685E78B
:1045000091E0909309068093080610920706109296
:10451000060686E096E0909374018093730183E72A
:1045200091E090930D0680930C06809164008E7F3D
:104530008093640080917A00806480937A008091F7
:104540007A0086FDFCCF80917800909179000E94DE
:10455000C0118091640081608093640081E0809349
:1045600079018091750190917601892B11F00E945B
:10457000981685E00E94F7138DE00E94F713809152
:104580007E018111FCC087EA5C988EBD00000DB4ED
:1045900007FEFDCF5C9A42E0842E912CC3E0D0E070
:1045A00054E0A52EB12C01E010E06EEBE62E67E1A1
:1045B000F62EDD24D39427E0C22E35E0232E312CB5
:1045C0002FB7F8948091AF059091B005A091B105F7
:1045D000B091B2052FBF20917C01222309F4D1C0F4
:1045E00010927C0180E090E0892B51F30E94000042
:1045F000E0CF10927E013E983F983ACF992029F063
:10460000C430D10511F42E9A2F9881E00E944F10EA
:104610009E01D7FF04C0222733272C1B3D0B277098
:104620003327CE01D7FD0796A3E095958795AA95E8
:10463000E1F7D7FF05C00197D801A21BB30B9D017D
:10464000BC017695762F66277795679561557E4FE5
:10465000F12CE12C3801621A730A8E3FBFEF9B07E1
:1046600009F43DC08E9CD0018F9CB00D112450E008
:1046700040E0AF5FB84E5B01E0E8AE0EB11C8F3F8B
:10468000980791F0FD01E40FF51FE4916B01C40E52
:10469000D51EF0E02F01022E01C0440C0A94EAF767
:1046A000F60154884528448A2115310599F0FD0109
:1046B000E40FF51FE4916501C40ED51EF0E02F0153
:1046C000062C02C0559447940A94E2F7F6015488E8
:1046D0004528448A4F5F5F4F4835510581F6019662
:1046E00060587F4FEA94EF2809F045C00E94A91650
:1046F0008FE090E00E948B162196C931D10509F018
:10470000C8CE992011F02F9A2D9880E991E00E944F
:104710008B160E94891681E090E00E94E01980FFCC
:10472000C0CE8AE090E00E94E0199FEF980F9E3F74
:1047300008F0B7CE22E330E0309387012093860162
:1047400028E330E03093890120938801CBE0D0E06A
:10475000682F82EA97E00E944E17CE010E94E0196E
:104760002196C131D105A1F70E94A91688EE93E0E8
:104770000E948B1696CEEE24E394F12C6ECF86EA3F
:1047800003CF20917D01382F321B232F3091000160
:10479000231740F42F5F231708F024CFD3BE88954A
:1047A00013BE20CFD0927C0180937D0180917A014D
:1047B00090917B01019690937B0180937A010E94F6
:1047C000ED0F1092890110928801109287011092CA
:1047D000860180918501809384010E9490168093C8
:1047E000850180E40E949E168823B9F0B0928B0167
:1047F000A0928A0180910606909107068230910569
:1048000009F4BDC00CF042C0009709F464C00197E0
:1048100009F4A3C00E94A916E5CE80E20E949E166C
:10482000882329F0D0938B01C0938A01E3CF80E8DD
:104830000E949E16882329F010938B0100938A0111
:10484000D9CF80E10E949E16882329F090928B0197
:1048500080928A01CFCF88E00E949E16882329F09B
:1048600030928B0120928A01C5CF84E00E949E166F
:10487000882339F046E050E050938B0140938A0141
:10488000B9CF10928B0110928A01B4CF8330910579
:1048900009F490C0049709F0BDCF80910C06909167
:1048A0000D060E943518E0910A06F0910B068081F2
:1048B0009181069709F0AECFE0910806F0910906C4
:1048C000828193810E94B1170E94E51BD093070655
:1048D000C09306069FCFE0910806F09109068481F7
:1048E0008823C1F080819181892BA1F080917E0184
:1048F000882381F08091830181110CC0F0928201A4
:10490000E0928101F0928001E0927F010E946A139F
:10491000D092830180910C0690910D06E0910A06D9
:10492000F0910B06208131812530310579F4109307
:104930000706009306060E943518E0910806F091DC
:104940000906828193810E94B11764CF10920706F5
:10495000109206060E9435185DCF80910C0690914A
:104960000D06E0910A06F0910B0620813181253079
:10497000310581F79092070680920606DCCFE09120
:104980000A06F0910B0680819181059771F4D0930E
:104990000706C09306060E94E51BE0910806F09109
:1049A0000906828193810E94B11780910C06909133
:1049B0000D06D0CF712C8091AE01781628F4872D8A
:1049C0000E943F137394F7CF10928301D093070690
:1049D000C0930606E0918C07F0918D07A0910A061E
:1049E000B0910B062D913C91809190079091910789
:1049F0002230310509F420C10CF0DCC02130310532
:104A000009F4FCC0409190075091910780819181F9
:104A10004817590709F061C0809192079091930758
:104A2000428153818417950709F057C0253031051D
:104A300009F053C04CE751E060E070E08CEB92E08D
:104A40000E94FA0F6CE771E080E090E00E94E511AF
:104A50004CE751E060E070E084E893E00E94FA0FD8
:104A60006CE771E080E090E00E94E5114CE751E0D6
:104A700060E070E080EB94E00E94FA0F6CE771E078
:104A800080E090E00E94E5110E94E51B80919E0766
:104A900090919F07019690939F0780939E07609146
:104AA00098077091990780919A0790919B070E94AF
:104AB000B12726E636E646E65FE30E9417280E9405
:104AC0008227609398077093990780939A07909331
:104AD0009B07D0930706C0930606E0910A06F09163
:104AE0000B0680819181069739F546E950E060E038
:104AF00070E080E991E00E94FA0F60EA70E080E0E7
:104B000090E00E94E51146E950E060E070E08AE83C
:104B100092E00E94FA0F80918E0790918F07892B67
:104B200009F0C1C010938F0700938E07EDECF6E0FB
:104B3000F0938D07E0938C0780910C0690910D0601
:104B40000E943518409098075090990760909A07F6
:104B500070909B072FB7F8946091AF057091B005E6
:104B60008091B1059091B2052FBF209194073091AB
:104B700095074091960750919707621B730B840B22
:104B8000950B0E94B1272FE632E143E85AE30E94D9
:104B900017280E947B27072E000C880B990B4616BE
:104BA00057066806790609F035CEB0920706A0923E
:104BB000060630CE2330310509F459C024303105C2
:104BC00009F020CFBC016F5F7F4FC69EA001C79E3A
:104BD000500D11244E0F5F1FA0919207B0919307C3
:104BE000A40FB51F14964C9141110CCF0B970CF0EC
:104BF00009CF709391076093900704CF409192077B
:104C000050919307DC0193E0AA0FBB1F9A95E1F73F
:104C1000AE0FBF1FA40FB51FA15ABF4F8C918111BA
:104C2000F1CE141615060CF0EDCE415051095093FB
:104C3000930740939207E6CE609192077091930795
:104C4000AB014F5F5F4FDC0183E0AA0FBB1F8A956A
:104C5000E1F7AE0FBF1FA40FB51FA15ABF4F8C9134
:104C60008111D0CE663071050CF0CCCEE0CFC89E5D
:104C7000A001C99E500D11244E0F5F1F6091920735
:104C800070919307460F571FDA0114964C9141110A
:104C9000B9CE181619060CF0B5CE0197909391076E
:104CA00080939007AFCE10928F0710928E074EE040
:104CB00056E050938D0740938C073ECF8F929F9282
:104CC000AF92BF92CF92DF92EF92FF92CF93DF939A
:104CD000EC01688179818A819B816115710581056B
:104CE000910521F464E279ED8BE597E02DE133EF56
:104CF00041E050E00E94182749015A019B01AC0194
:104D0000A7EAB1E40E9437276B017C01ACEEB4EF57
:104D1000A50194010E944527C60ED71EE81EF91E64
:104D2000F7FE06C081E0C81AD108E10880E8F80A59
:104D3000C882D982EA82FB82C701B6019F77DF91E0
:104D4000CF91FF90EF90DF90CF90BF90AF909F906A
:104D50008F9008958F929F92AF92BF92CF92DF92E1
:104D6000EF92FF9260910D0170910E0180910F0101
:104D700090911001611571058105910521F464E29E
:104D800079ED8BE597E02DE133EF41E050E00E94B3
:104D9000182749015A019B01AC01A7EAB1E40E941E
:104DA00037276B017C01ACEEB4EFA50194010E94A2
:104DB0004527C60ED71EE81EF91EF7FE06C081E085
:104DC000C81AD108E10880E8F80AC0920D01D09213
:104DD0000E01E0920F01F0921001C701B6019F771A
:104DE000FF90EF90DF90CF90BF90AF909F908F900B
:104DF000089560930D0170930E0180930F019093BD
:104E000010010895F999FECF92BD81BDF89A9927B6
:104E100080B50895262FF999FECF1FBA92BD81BDA6
:104E200020BD0FB6F894FA9AF99A0FBE019608952C
:104E3000052E97FB1EF400940E942F2757FD07D0E4
:104E40000E944A2707FC03D04EF40C942F2750955C
:104E50004095309521953F4F4F4F5F4F0895909566
:104E60008095709561957F4F8F4F9F4F08950E9459
:104E70006C27A59F900DB49F900DA49F800D911D50
:104E800011240895B7FF0C9437270E943727821BFF
:104E9000930B0895A1E21A2EAA1BBB1BFD010DC0A6
:104EA000AA1FBB1FEE1FFF1FA217B307E407F507DA
:104EB00020F0A21BB30BE40BF50B661F771F881FB6
:104EC000991F1A9469F760957095809590959B014C
:104ED000AC01BD01CF010895A29FB001B39FC001F5
:104EE000A39F700D811D1124911DB29F700D811D16
:104EF0001124911D08950E9482276894B1110C9489
:104F0000112808950E94F62788F09F5798F0B92F2E
:104F10009927B751B0F0E1F0660F771F881F991FEE
:104F20001AF0BA95C9F714C0B13091F00E94102858
:104F3000B1E008950C941028672F782F8827B85F68
:104F400039F0B93FCCF3869577956795B395D9F746
:104F50003EF490958095709561957F4F8F4F9F4F50
:104F60000895E89409C097FB3EF49095809570955C
:104F700061957F4F8F4F9F4F9923A9F0F92F96E9A5
:104F8000BB279395F695879577956795B795F1111A
:104F9000F8CFFAF4BB0F11F460FF1BC06F5F7F4FB7
:104FA0008F4F9F4F16C0882311F096E911C07723C9
:104FB00021F09EE8872F762F05C0662371F096E8D2
:104FC000862F70E060E02AF09A95660F771F881FA1
:104FD000DAF7880F9695879597F9089557FD9058B9
:104FE000440F551F59F05F3F71F04795880F97FBAD
:104FF000991F61F09F3F79F0879508951216130667
:105000001406551FF2CF4695F1DF08C01616170695
:105010001806991FF1CF86957105610508940895CA
:10502000E894BB2766277727CB0197F908950E945C
:105030002A280C949B280E948D2838F00E949428DE
:1050400020F0952311F00C9484280C948A281124C4
:105050000C9411280E94EE2770F3959FC1F3950FD1
:1050600050E0551F629FF001729FBB27F00DB11DEC
:10507000639FAA27F00DB11DAA1F649F6627B00D7C
:10508000A11D661F829F2227B00DA11D621F739F65
:10509000B00DA11D621F839FA00D611D221F749F73
:1050A0003327A00D611D231F849F600D211D822FBA
:1050B000762F6A2F11249F5750409AF0F1F08823E1
:1050C0004AF0EE0FFF1FBB1F661F771F881F91500E
:1050D0005040A9F79E3F510580F00C9484280C9411
:1050E00011285F3FE4F3983ED4F386957795679552
:1050F000B795F795E7959F5FC1F7FE2B880F911D38
:105100009695879597F9089597F99F6780E870E0DD
:1051100060E008959FEF80EC089500240A9416162D
:10512000170618060906089500240A941216130695
:10513000140605060895092E0394000C11F4882323
:1051400052F0BB0F40F4BF2B11F460FF04C06F5F3F
:105150007F4F8F4F9F4F0895EE0FFF1F0590F491E3
:10516000E02D09940F931F93CF93DF938230910525
:1051700010F482E090E0E091A807F091A90730E0F8
:1051800020E0B0E0A0E0309799F42115310509F452
:105190004AC0281B390B24303105D8F58A819B8100
:1051A0006115710589F1FB0193838283FE0111C0B2
:1051B000408151810281138148175907E0F0481757
:1051C000590799F4109761F012960C931297139661
:1051D0001C933296CF01DF91CF911F910F910895CB
:1051E0000093A8071093A907F4CF2115310551F0BA
:1051F0004217530738F0A901DB019A01BD01DF0115
:10520000F801C1CFEF01F9CF9093A9078093A807C8
:10521000CDCFFE01E20FF31F81939193225031090C
:1052200039832883D7CF2091A6073091A707232B56
:1052300041F420911301309114013093A70720937A
:10524000A60720911101309112012115310541F479
:105250002DB73EB74091150150911601241B350B17
:10526000E091A607F091A707E217F307A0F42E1B21
:105270003F0B2817390778F0AC014E5F5F4F2417BA
:10528000350748F04E0F5F1F5093A7074093A607BE
:10529000819391939FCFF0E0E0E09CCFCF93DF9399
:1052A0000097E9F0FC01329713821282A091A807BF
:1052B000B091A907ED0130E020E01097A1F4208122
:1052C0003181820F931F2091A6073091A7072817DD
:1052D000390709F061C0F093A707E093A607DF91B3
:1052E000CF910895EA01CE17DF07E8F54A815B8187
:1052F0009E0141155105B1F7E901FB83EA8349910C
:105300005991C40FD51FEC17FD0761F4808191817D
:105310000296840F951FE901998388838281938186
:105320009B838A83F0E0E0E012968D919C91139725
:105330000097B9F52D913C911197CD010296820FFE
:10534000931F2091A6073091A7072817390739F630
:10535000309751F51092A9071092A807B093A707AC
:10536000A093A607BCCFD383C28340815181840F11
:10537000951FC817D90761F44E5F5F4F88819981E7
:10538000480F591F518340838A819B819383828375
:105390002115310509F0B0CFF093A907E093A807D4
:1053A0009ECFFD01DC01C0CF13821282D7CFB0E0C7
:1053B000A0E0EDEDF9E20C949F2A8C01009751F4E6
:1053C000CB010E94B2288C01C801CDB7DEB7E0E165
:1053D0000C94BB2AFC01E60FF71F9C0122503109F7
:1053E000E217F30708F49DC0D901CD91DC91119724
:1053F000C617D70798F0C530D10530F3CE01049712
:105400008617970708F3C61BD70B2297C193D19332
:105410006D937C93CF010E944E29D6CF5B01AC1ACD
:10542000BD0A4C018C0E9D1EA091A807B091A90742
:10543000512C412CF12CE12C109731F58091A607CD
:105440009091A7078815990509F05CC04616570684
:1054500008F058C08091110190911201009741F419
:105460008DB79EB74091150150911601841B950B85
:10547000E817F90708F055C0F093A707E093A607CF
:10548000F90171836083A0CF8D919C911197129641
:105490006C90129713967C901397A815B90559F53F
:1054A0006C0142E0C40ED11CCA14DB0420F1AC0133
:1054B0004A195B09DA011296159780F062827382AD
:1054C00051834083D9016D937C93E114F10471F011
:1054D000D7011396FC93EE93129776CF22968C0FFA
:1054E0009D1FF90191838083F301EFCFF093A9070A
:1054F000E093A80769CF4816590608F42C017D01EE
:10550000D3019ACFCB010E94B2287C01009749F0C9
:10551000AE01B8010E94942AC8010E944E29870159
:1055200053CF10E000E050CFFB01DC0102C001903E
:105530000D9241505040D8F708952F923F924F92CC
:105540005F926F927F928F929F92AF92BF92CF9213
:10555000DF92EF92FF920F931F93CF93DF93CDB71C
:10556000DEB7CA1BDB0B0FB6F894DEBF0FBECDBF94
:1055700009942A88398848885F846E847D848C8465
:105580009B84AA84B984C884DF80EE80FD800C816E
:105590001B81AA81B981CE0FD11D0FB6F894DEBF51
:0C55A0000FBECDBFED010895F894FFCFC1
:1055AC0010FFFFFFFF00E100000000000001000001
:1055BC00000000AA078000000001000000FFFFFFB0
:1055CC00FF000001000000FFFFFFFFFFFFFFFF00D7
:1055DC00000000E219EB0F030100C1808100000004
:1055EC0000000000AD101812CE10C3101411D21010
:1055FC00F010000000004E179D12C017BF174C0092
:00000001FF
